:060000000A128A1100291A
:10000800F000030EF1000B1833200B191220031314
:100018008312710E8300F00E700E09000313831211
:10002800D93081000B11A00A2008323C03191D2089
:100038000800A001A10A21080022870021080A3C23
:10004800031927200800A1013F308700A20A2208CF
:10005800063C0319A20122080022880008000313A5
:0E0068008312061C850A861C85030B100800F7
:10020000082127212E213B21432103138312072993
:1002100003178316880189010313831606148614B5
:1002200005108510051185118701880181131514AA
:1002300095140313831285018601870188013F30DD
:1002400087003F308800A001A101A201080003132C
:1002500083160F140F178F120F160800031383163F
:100260008112811101158114011403138312D930F5
:1002700081000B110800031383128B178B150B10D1
:100280008B160B1108000313831616149614031310
:08029000831206080B100800A0
:100400008A018A140F3982073F3406345B344F3433
:1004100066346D347D3407347F346F3477347C3404
:0804200039345E347934713483
:04400E00C430FF3F7C
:00000001FF
